:020000040800F2
:10000000680A0020490100087D1F0008D515000876
:10001000791F0008FD0D00080F40000800000000D7
:10002000000000000000000000000000952400080F
:10003000C50F00080000000005200008A9250008E1
:100040006301000863010008630100086301000800
:1000500063010008630100086301000863010008F0
:1000600063010008630100086301000863010008E0
:1000700063010008630100086301000863010008D0
:1000800063010008630100086301000863010008C0
:1000900063010008630100086301000863010008B0
:1000A00063010008630100086301000863010008A0
:1000B0006301000863010008B52900086301000816
:1000C0006301000863010008630100086301000880
:1000D000630100082D3B000863010008653C00082F
:1000E0006301000863010008630100086301000860
:1000F0006301000863010008630100086301000850
:10010000630100086301000863010008630100083F
:10011000630100086301000863010008E529000885
:10012000630100086301000863010008630100081F
:10013000DFF810D000F09CFC004800470150000898
:10014000AFF30080680A0020064880470648004751
:10015000FEE7FEE7FEE7FEE7FEE7FEE7FEE7FEE777
:10016000FEE7FEE7E92500083101000840EA010347
:100170009B0703D009E008C9121F08C0042AFAD25D
:1001800003E011F8013B00F8013B521EF9D2704721
:1001900030B505462A460B4612F8010B13F8014B01
:1001A00008B1A042F8D01CB1002802D06D1CF1E7C4
:1001B000284630BD421C10F8011B0029FBD1801AD3
:1001C000704710B5002200E0521C835C8C5CA34297
:1001D00001D1002BF8D1D8B2E1B2401A10BDF0B471
:1001E00080EA0102D40F4200B2EB410F02D2024674
:1001F000084611464A0042D0C30DDDB2C1F3C752D2
:10020000AD1A202D35DAC1F3160141F4000204B114
:100210005242C5F1200602FA06F12A411044B3EB1E
:10022000D05F23D0C4B1012DA0EBC35009DCF0BCDA
:100230004FF0004202EAC352DBB200F5000000F0CA
:100240000DBA400000F1807000EBC350A0F1807047
:1002500040EAD170490009E0490841EAC071A0EBC9
:10026000C35000F50000400800EBC350F0BC00F0A4
:10027000ECB96142012202EB4101001BF6E7F0BC40
:10028000704781F00041AAE780F00040A7E780EACC
:10029000010210B502F00043400022D04A001FD0F6
:1002A000010E01EB1261C0F35600C2F3560240F496
:1002B000000042F40002A0FB022000047F39140475
:1002C00000D0401C50EA124001D44000491EC2B286
:1002D0000C0604EBD010401C4008802A02D003E03A
:1002E000002010BD20F00100002900DA0020184392
:1002F00010BD30B480EA010202F0004530F0004247
:1003000021F0004013D090B1C30DD40DC2F31601FB
:10031000C0F31600E41A41F4000140F400027D34F9
:10032000914201D3641C00E04900002C02DA30BC89
:10033000002070474FF400000023914201D3891A36
:10034000034340084FEA4101F7D151B1914202D134
:100350004FF0004105E002D24FF0010101E06FF0E3
:10036000010103EBC450284430BC00F06EB92DE904
:10037000FE4F81EA030404F0004421F000410094A0
:100380004FF0000B23F0004350EA01045ED052EA24
:1003900003045BD0C3F30A54C1F30A552C44A4F2FE
:1003A000F3340194A0FB0254C1F3130141F4801112
:1003B000C3F3130343F4801301FB024400FB034E19
:1003C000840A970A44EA815447EA8357A4FB0768E2
:1003D00002958D0A05FB07854FEA932C04FB0C540C
:1003E0002705029D4FEA065847EA1637B5EB080580
:1003F0006EEB070C870E920E47EA811742EA8312D2
:10040000A7FB0201B6EB0B0164EB00042B0D43EAE2
:100410000C335E1844EB1C50DA465146E7FB0201F0
:10042000C5F313044FEA0B3343EA14534FEA043283
:10043000019C43EA0603A4F10C040294009CCDE95C
:1004400000B400F048F903B0BDE8F08F0020014689
:10045000F9E7C10F80EAE0700844CA07962300213B
:1004600000F0FCB896230022114600F0F7B80EB554
:1004700040F2334102910021CDE900110A460B46BA
:1004800000F029F903B000BD00F0004220F0004068
:10049000C10DC0F3160040F400007F2901DA0020EE
:1004A0007047962903DCC1F19601C84001E09639F6
:1004B0008840002AF4D04042704720F00040C10D2F
:1004C000C0F3160040F400007F2901DA00207047D5
:1004D000962903DCC1F19601C840704796398840DF
:1004E0007047C1F30A5210B5C1F3130140F2FF3354
:1004F00041F480119A4201DA002010BD40F23343EA
:100500009A42A2F2334203DC524200F08EF810BD50
:10051000904010BD00F0004230F000400AD0C10D04
:1005200001F56071C0F3160042EA0151C2084007AC
:1005300011437047002001467047000030B5041E8B
:1005400071F1000404DB4FF00044404264EB010110
:10055000141E73F1000405DB1C464FF000435242A9
:1005600063EB04038B4208BF824230BD30B5041EEA
:1005700071F1000404DB4FF00044404264EB0101E0
:10058000141E73F1000405DB1C464FF00043524279
:1005900063EB0403994208BF904230BD30B50B466F
:1005A000014600202022012409E021FA02F59D42A3
:1005B00005D303FA02F5491B04FA02F52844151E77
:1005C000A2F10102F1DC30BD2DE9F05F054600200B
:1005D00092469B4688460646814640241BE02846B4
:1005E00041464746224600F020F853465A46C01A74
:1005F000914110D311461846224600F04BFA2D1AAD
:1006000067EB01084F4622460120002100F042FA24
:1006100017EB00094E41201EA4F10104DFDC48461F
:1006200031462A464346BDE8F09F202A04DB203AA3
:1006300021FA02F00021704721FA02F3D040C2F102
:10064000200291400843194670470029A8BF70470F
:10065000401C490008BF20F00100704710B4B0FAF8
:1006600080FC00FA0CF050EA010404BF10BC704793
:1006700049B1CCF1200421FA04F411FA0CF118BFAD
:10068000012121430843A3EB0C01CB1D4FEA00617C
:100690004FEA102042BF002010BC704700EBC3504F
:1006A00010440029A4BF10BC7047401C490008BF7B
:1006B00020F0010010BC704710B5141E73F1000447
:1006C00008DA401C41F1000192185B411A4301D144
:1006D00020F0010010BD2DE9F04D92469B4611B16E
:1006E000B1FA81F202E0B0FA80F22032904600F0D6
:1006F000D1F904460F4640EA0A0041EA0B0153468D
:100700005A46084313D0114653EA010019D0C8F1E4
:1007100040025046FFF789FF05460E4650465946AF
:10072000424600F0B7F9084305D0012004E0204616
:100730003946BDE8F08D0020054346EAE0762C43BB
:1007400037430A986305E40AA0EB08000022FD0A7B
:1007500044EA47540A3002D500200146E9E7010582
:1007600010196941DDE9084500196941BDE8F04DFE
:10077000A2E72DE9FE4F804681EA0300C00F0C4638
:10078000009021F0004123F00045B8EB0200A941A0
:1007900005D24046214690461C460B46024623F0B1
:1007A0000040104347D0270DC7F30A00C3F30A5196
:1007B0000290401A019040286BDAC3F3130040F412
:1007C000801B0098924620B10023D2EB030A63EB12
:1007D0000B0B01985946C0F14002504600F05AF9FF
:1007E00006460D4650465946019A00F062F910EB54
:1007F00008006141002487EA115284EAE7731A4332
:1008000040D0009A62B3019A012A4FEA075215DCE0
:10081000001B61EB02014FF0004202EA0752CDE9F2
:100820000042001C41F5801132462B46FFF753FF72
:1008300003B0BDE8F08F40462146F9E7001B61EBAD
:100840000201001C41F5801300185B412018A2F53D
:10085000001747EB030140EAD570B6196D4111E06E
:100860006D084FEA360645EAC0754FEA0752001B8D
:1008700061EB0201001C41F5801149084FEA30008C
:100880000019514132462B4603B0BDE8F04FFFF747
:1008900013BF0098012240000023D0EB020263EB5B
:1008A000E073009821464FEAE074B8EB000061EB7A
:1008B0000401E9E783F000435BE781F0004158E77A
:1008C0002DE9F04D81EA030404F0004B21F00045CE
:1008D00014464FF0000A23F0004150EA050220D0F0
:1008E00054EA01021DD0C5F30A570246C5F31303AB
:1008F000C1F31300C1F30A5640F4801543F480138A
:10090000A7EB0608101BD64608F2FD3873EB05006E
:1009100002D308F1010801E092185B41B8F1000F21
:1009200003DA00200146BDE8F08D00204FF480116D
:10093000064684460EE0171B73EB050705D3121B12
:1009400063EB050306434CEA010C49084FEA30000B
:1009500092185B4150EA0107EDD152EA030012D030
:1009600082EA040083EA0501084305D0101BAB416D
:1009700006D20122002306E000224FF0004302E0ED
:100980006FF0010253101AEB06004CEB085110EB0C
:100990000A0041EB0B01BDE8F04DFFF78DBE2DE9DC
:1009A000F04D00231A461B1A8A4103DB0020014642
:1009B000BDE8F08DC1F30A52C1F3130141F4801573
:1009C0004FF0000BD10702D100186D41521E0027D5
:1009D000044640F2FF11384601EB620A3E4680466B
:1009E000024600204FF48011FFF71FFEC21971412B
:1009F000BB1846EB0100B4EB030C75EB000C04D301
:100A0000E41A65EB000517460E46241908F10100AB
:100A10006D4180463428E3DDF91946EB0600091BD9
:100A2000A84103D24FF0FF32134601E000221346E3
:100A30001BEB070046EB0A51BDE8F04DFFF73CBE4B
:100A4000C1F30A52C1F3130140F2FF3341F48011A4
:100A50009A4202DA00200146704740F233439A423C
:100A6000A2F2334202DC5242FFF7DFBD00F012B8BF
:100A7000064C074D06E0E06840F0010394E80700EB
:100A800098471034AC42F6D3FFF756FB40A300085A
:100A900060A30008202A04DB203A00FA02F10020BB
:100AA00070479140C2F1200320FA03F319439040AC
:100AB0007047202A06DBCB17203A41FA02F043EABE
:100AC000E07306E041FA02F3D040C2F12002914007
:100AD00008431946704721B1826842F001028260E2
:100AE00003E0826822F001028260704710B504467C
:100AF0001248844208D10121401501F0C5FA0021B5
:100B0000601501F0C1FA17E00D48844208D10121B7
:100B1000001501F0B9FA0021201501F0B5FA0BE03B
:100B20000848844208D10121C80301F0ADFA002130
:100B30004FF4004001F0A8FA10BD0000002401406D
:100B400000280140003C0140014600208A6802F074
:100B500004020AB1012000E0002070470146C86C81
:100B600080B270470246002013680B400BB1012091
:100B700000E000207047014600208A6802F0080269
:100B80000AB1012000E000207047000030B50246A5
:100B90000020002350680F4C20400D790C6844EA77
:100BA00005242043506090680B4C2040D1E902544A
:100BB0002C434D7944EA450420439060D06A20F4E8
:100BC00070000C7C641EE4B2234340EA0350D06200
:100BD00030BD0000FFFEF0FFFDF7F1FFF0B5044669
:100BE0000D4600200021092D11DDE068A5F10A065F
:100BF00006EB4607072606FA07F18843A5F10A0621
:100C000006EB460603FA06F10843E0600CE02069B3
:100C100005EB4507072606FA07F1884305EB45066D
:100C200003FA06F108432061072A0FDA606B561EAB
:100C300006EB86071F2606FA07F18843561E06EBC9
:100C4000860605FA06F10843606322E00D2A0FDAF2
:100C5000206BD61F06EB86071F2606FA07F188438E
:100C6000D61F06EB860605FA06F10843206310E05E
:100C7000E06AA2F10D0606EB86071F2606FA07F1C9
:100C80008843A2F10D0606EB860605FA06F1084335
:100C9000E062F0BD816841F008018160704721B1D8
:100CA000826842F4A002826003E0826822F4A0021B
:100CB00082607047816841F004018160704710B51F
:100CC00000F0A6FC10BD2DE9F04107460C460026B9
:100CD000002509E036023919491B491E88B200F087
:100CE00008F80644681CC5B2A542F3DB3046BDE8EF
:100CF000F08170B50446002600F02AFD2546E11774
:100D000004EB11610912A02202EB4101C8B200F00C
:100D1000EDFC00F055FDE11704EB11610912A4EBA5
:100D20000121C8B200F0E2FC00F04AFD00F010FD25
:100D3000A12000F0DBFC00F043FD002000F0AAFC45
:100D4000064600F021FD304670BD2DE9F041054614
:100D50000E461746002409E0E20026FA02F2D1B25C
:100D60002A1990B200F006F8601CC4B2BC42F3DB52
:100D7000BDE8F08170B504460E4600F0E9FC25465A
:100D8000E11704EB11610912A02202EB4101C8B284
:100D900000F0ACFC00F014FDE11704EB1161091246
:100DA000A4EB0121C8B200F0A1FC00F009FD30461F
:100DB00000F09CFC00F004FD00F0E6FC0A2003F0CB
:100DC000ADFF70BD08B50121082001F04DF94FF4C9
:100DD0008070ADF8000010208DF8030003208DF81E
:100DE00002006946044800F07CF94FF48071024823
:100DF00000F04AFA08BD0000000C014000BFFEE709
:100E000010B5002400F024F804E0601CC4B20120F6
:100E100003F0AAFF0D48006808B1642CF5DB642CD0
:100E200001DB012010BD002404E0601CC4B20120DD
:100E300003F09AFF0548006808B9642CF5DB642CC0
:100E400001DB0120EEE70020ECE700002C0124424A
:100E500008B54FF40060ADF8000048208DF803009D
:100E60006946024800F03DF908BD0000002001403D
:100E700008B54FF40060ADF8000010208DF80300B5
:100E800003208DF802006946014800F02AF908BDE8
:100E90000020014008B50121080201F0E5F84FF4F7
:100EA0000060ADF8000010208DF8030003208DF8DD
:100EB00002006946064800F014F94FF40061044846
:100EC00000F0E4F900F068F8FFF79AFF08BD0000B1
:100ED0000020014010B5002404E0601CC4B20120D1
:100EE00003F042FF0D48006808B1642CF5DB0024D4
:100EF00004E0601CC4B2012003F036FF074800681C
:100F000008B9642CF5DB282003F02EFF03480068A5
:100F100008B1012010BD0020FCE700002C01244294
:100F200070B50024002506E06006040EFFF7D2FF2E
:100F30000443681CC5B2082DF6DB204670BD7CB5A5
:100F400005460E4600F028F8FFF75AFFF8B90024CE
:100F500005E0FFF7E5FF0DF80400601CC4B2052CA6
:100F6000F7DB9DF800009DF8011008449DF8021081
:100F700008449DF8031008449DF80410884208D1E5
:100F80009DF8000030709DF80200287001E00120FB
:100F90007CBD0020FCE7000010B5FFF769FF0020D2
:100FA00006490860142003F0B9FE01200449C1F885
:100FB000AC011E2003F0D8FE10BD0000AC0124429D
:100FC000000024427047000051B18200A2F1C042EB
:100FD000126842F001038200A2F1C042136009E0EE
:100FE0008200A2F1C0421268034B1A408300A3F1B1
:100FF000C0431A6070470000FEFF0F00D0E90112E5
:101000001143C26811430269114342691143826965
:101010001143C2691143026A1143426A1143826A51
:101020001143C26A1143026B114302689200A2F19C
:10103000C0421160816808290BD101688900A1F1C3
:10104000C041096841F0400201688900A1F1C04136
:101050000A60416B0968426B526841EA0211426BB7
:10106000926841EA0221426B928941EA0241426B55
:10107000128A41EA0251426B127D41EA0261426BDF
:10108000926911430268521C9200A2F1C0421160A1
:10109000C16AB1F5804F1BD1816B0968826B5268C0
:1010A00041EA0211826B926841EA0221826B128A44
:1010B00041EA0251826B127D41EA0261826B9269C0
:1010C000114302689200A2F1C042C2F8041107E085
:1010D0006FF0704201688900A1F1C041C1F804219C
:1010E00070472DE9F041024600250026002000232C
:1010F0000024002791F803C00CF00F0591F803C0FD
:101100000CF0100CBCF1000F03D091F802C04CEAB7
:10111000050591F800C0BCF1000F31D01468002023
:101120002BE04FF0010C0CFA00F3B1F800C00CEA10
:1011300003069E4220D183004FF00F0C0CFA03F7F8
:10114000BC4305FA03FC4CEA040491F803C0BCF16B
:10115000280F06D14FF0010C0CFA00FCC2F814C0A5
:101160000AE091F803C0BCF1480F05D14FF0010C23
:101170000CFA00FCC2F810C0401C0828D1D314603F
:10118000B1F800C0BCF1FF0F34DD546800202EE040
:1011900000F1080C4FF0010808FA0CF3B1F800C098
:1011A0000CEA03069E4221D183004FF00F0C0CFA8B
:1011B00003F7BC4305FA03FC4CEA040491F803C0AE
:1011C000BCF1280F05D100F1080C08FA0CF8C2F8A0
:1011D000148091F803C0BCF1480F07D100F1080C4E
:1011E0004FF0010808FA0CF8C2F81080401C0828DB
:1011F000CED35460BDE8F081F0B50A460023002448
:101200000021002500F00046B6F1004F02D11D4E2E
:10121000F16901E01B4E7168C0F3034583B200F42D
:101220004016B6F5401F08D121F07061154E766862
:1012300026F07066134F7E6012E000F48016B6F55B
:10124000801F06D1032606FA05F4A14341F0706120
:1012500006E0460D360103FA06F6B14341F070612F
:1012600022B1460D360103FA06F6314300F000467E
:10127000B6F1004F02D1034EF16101E0014E716001
:10128000F0BD0000000001404161704701617047FE
:1012900010B504460723012221460948FFF79EFCAA
:1012A00001210748FFF7FBFC00BF02210448FFF7BC
:1012B00059FC0028F9D00248FFF750FC10BD00008F
:1012C000003C01402DE9F0410527FF2538E00120D1
:1012D00022490860642003F021FD00202049088095
:1012E00020A004F003FB00260AE01D48008800F45B
:1012F000004000B106E00A2003F010FD701CC6B2E9
:10130000142EF2DB00BF0020144908601448008846
:1013100000F4004088B112480088C5B2002014498A
:10132000485514A11248FEF733FF04462CB1A079AA
:101330003038C5B2012D00DC07E0642003F0EEFC7C
:10134000381EA7F10101CFB2C1D100BF012D02DCCF
:101350002846BDE8F081FF20FBE700009001214214
:101360007000002041542B524F4C453F0D0A0000A5
:101370009E0000202B524F4C453A0000F8B50A263B
:1013800001250121042000F06FFE0120364908608C
:10139000642003F0C3FCE803ADF8000048208DF89A
:1013A000030003208DF8020069463048FFF799FEDC
:1013B0001020ADF800008DF8030003208DF8020026
:1013C00069462A48FFF78DFE10212848FFF75EFF87
:1013D00001212748FFF710FF01202649C1F83C01F1
:1013E0004FF4165002F076FC33E001201E490860ED
:1013F000642003F093FC00201F4908801FA004F024
:1014000075FA00240AE01C48008800F4004000B18E
:1014100006E0052003F082FC601CC4B2142CF2DB51
:1014200000BF0020104908601348008800F4004005
:1014300060B111480088C5B200201249485512A178
:101440001048FEF7A5FE08B1002507E0642003F070
:1014500065FC301EA6F10101CEB2C6D100BF06B9AF
:1014600001252846F8BD00009001214200080140F6
:1014700000023000000021427000002041540D0A9B
:10148000000000009E0000204F4B00001CB5FFF73D
:1014900019FF01280AD10BA010210B46C822CDE963
:1014A00000108C210A2000F08BFC09E008A010211C
:1014B0000B46C822CDE900108C210A2000F080FCE8
:1014C0001CBD0000524F4C453A4D6173746572006B
:1014D000524F4C453A536C61766520002DE9F0413E
:1014E00004460527FF2534E001201E4908606420DA
:1014F00003F014FC00201C49088021461BA004F0C6
:10150000F5F900260AE01848008800F4004000B110
:1015100006E0052003F002FC701CC6B2142EF2DBBC
:1015200000BF00200F4908600F48008800F4004009
:1015300060B10D480088C5B200200E4948550EA183
:101540000C48FEF725FE08B1002507E0642003F0F3
:10155000E5FB381EA7F10101CFB2C5D100BF284677
:10156000BDE8F081900121427000002025730D0A32
:10157000000000009E0000204F4B00001CB50C48EE
:10158000006850B10BA010210B467822CDE9001065
:101590008C216E2000F014FC09E00AA010210B46FB
:1015A0007822CDE900108C216E2000F009FC1CBDD2
:1015B0003C0121425354413A436F6E6E656374653A
:1015C000642000005354413A446973636F6E6E6542
:1015D0006374000000BFFEE710B500200A490860F0
:1015E00000F046FF00200949C1F89C01022003F0E9
:1015F000BBFB012004490860052003F0B5FB002077
:101600000249C1F8980110BD988121420080214211
:1016100008B50121082000F027FD4020ADF80000AA
:1016200003208DF8020010208DF803006946084859
:10163000FFF757FD8020ADF8000069460448FFF72A
:1016400050FD0120034908600349C1F89C0108BD11
:10165000000C0140988121420080214210B50020F9
:101660000A49086000F004FF01200949C1F89C0103
:10167000022003F079FB012004490860052003F0F3
:1016800073FB00200249C1F8980110BD98812142E6
:101690000080214270B50546002400F0DBFE0026E4
:1016A00016E000200F490860022003F05DFB0120D6
:1016B0000D49C1F898016006040E0A487C3800689C
:1016C00008B1601CC4B2012003F04EFB701CC6B20E
:1016D000082EE6DB15B9FFF7C1FF01E0FFF77CFF3D
:1016E000204670BD988121420080214270B5044699
:1016F00000F0BEFE002014490860002520E004F040
:101700008000002804DD01200F49091D086003E066
:1017100000200D49091D08606006040E022003F038
:1017200023FB012008490860022003F01DFB002074
:101730000649C1F89801022003F016FB681CC5B2E7
:10174000082DDCDB70BD0000988121420080214221
:1017500010B500F08DFE0120094908600949C1F863
:101760009801052003F000FB0020054908600620D1
:1017700003F0FAFA00200349C1F8980110BD0000F7
:101780009C8121420080214210B500F071FE0020B2
:10179000094908600949C1F89C010120064908600F
:1017A000062003F0E1FA01200449C1F89C0106205B
:1017B00003F0DAFA10BD0000988121420080214236
:1017C00010B5002401200F49086003F0CDFA00F0A5
:1017D00041FE01200C49C1F8980103F0C5FA07E069
:1017E000601CC4B2FA2C03DDFFF7CEFF012010BD50
:1017F0000448803800680028F2D10249091F0860B7
:1018000000BFF4E79C8121420080214208B50121FC
:10181000442000F029FC0120ADF8000028208DF8BC
:10182000030069460648FFF75CFC1C20ADF8000089
:1018300048208DF8030069460248FFF752FC08BDB6
:10184000000801400018014010B50446012C01D1E8
:10185000224908702148007801282AD120480068D0
:1018600001280AD01F48006838B11E48001F0068D0
:1018700018B11C4808380068D8B90A2003F04EFA9D
:1018800000201649087016480068012800D110BDD4
:101890001448006808B90220F9E71248001F0068E0
:1018A00008B90320F3E70F4808380068A0B90420FE
:1018B000EDE70B48006878B90A48006801280BD1A9
:1018C0000848001F0068012806D10648083800684B
:1018D000012801D1014908700020D8E762000020EA
:1018E000000121421001234270B506460F4840888E
:1018F000401E83B20D480088401E82B20021084677
:1019000000F05AF900240CE0002504E0304600F015
:1019100097FA681C85B205484088A842F6DC601C2E
:1019200084B202480088A042EEDC70BD680000204E
:1019300000B502460F4882716AB9362000F074FA89
:101940004C2000F077FA4FF4F0700A4948804FF4C9
:10195000A07008800CE0362000F066FA2C2000F021
:1019600069FA4FF4A070034948804FF4F070088082
:1019700000BD00006800002070B504460D46164604
:101980002B4622462946204600F016F9304600F044
:1019900057FA70BD2DE9FF4F84B081468A4600207A
:1019A000039002900698A0EB09050798A0EB0A06A1
:1019B000CDF80490CDF800A0002D01DD012705E051
:1019C0000DB9002702E04FF0FF376D42002E02DD17
:1019D0004FF0010806E016B94FF0000802E04FF0A2
:1019E000FF387642B54201DD2C4600E034464FF028
:1019F000000B21E0009A91B2019A90B200F022F817
:101A00000398284403900298304402900398A0421F
:101A100005DD0398001B039001983844019002985B
:101A2000A04205DD0298001B0290009840440090FF
:101A30000BF101001FFA80FB601C8345DADD08B062
:101A4000BDE8F08F30B504460D462B4622462946A8
:101A5000204600F0B1F80248008800F0F1F930BDEE
:101A600064000020F0B504460D4616461F462B467E
:101A7000324629462046FFF78DFF3B46224629463F
:101A80002046FFF787FF3B46324639462046FFF7A0
:101A900081FF3B46324629463046FFF77BFFF0BDCB
:101AA0002DE9F04306460F469046002445460320A4
:101AB000A0EB48093CE07A1B91B2321990B2FFF7D3
:101AC000C1FF3A1B91B2721990B2FFF7BBFF3A19EE
:101AD00091B2721990B2FFF7B5FF7A1991B232192B
:101AE00090B2FFF7AFFF7A1991B2321B90B2FFF7B5
:101AF000A9FF3A1991B2721B90B2FFF7A3FF7A1BAC
:101B000091B2321B90B2FFF79DFF3A1B91B2721B4C
:101B100090B2FFF797FF641CB9F1000F03DAA00041
:101B2000801D814404E0601B80000A3081446D1EEA
:101B3000AC42C0DDBDE8F0832DE9F04304460D461C
:101B400016461F46DDF81C80B44201DCBD4201DDB3
:101B5000BDE8F0833B4632462946204600F02CF88B
:101B6000301B401C84B2781B401C85B20BE0A94698
:101B700002E0404600F064F9B9F10000A9F101016A
:101B80001FFA81F9F5D1201EA4F101018CB2EED12A
:101B900000BFDDE710B50246012000E050430B1EF8
:101BA000A1F10104E1B2F9D110BD000001480088A3
:101BB000704700000008006C30B504460D462A202E
:101BC00000F032F9201200F035F9E0B200F032F9FD
:101BD000101200F02FF9D0B200F02CF92B2000F0F9
:101BE00023F9281200F026F9E8B200F023F91812C0
:101BF00000F020F9D8B200F01DF92C2000F014F903
:101C000030BD00002DE9F84F80460E4617461C46B1
:101C1000B3462046E31704EB5373DB1021464FEA2B
:101C2000E47C04EB5C7C4FEAEC0CA4EBCC0CBCF148
:101C3000000F02D04FF0010C01E04FF0000C6344A4
:101C4000224604EBD27C4FEA6C0C03FB0CF3DBB2B4
:101C50000093A7F12000C7B2002556E00C2C07D155
:101C600007EB47002B4901EB800010F8059013E0CB
:101C7000102C05D1284800EB071010F805900BE058
:101C8000182C07D107EBC700244901EB800010F89E
:101C9000059001E0BDE8F88F4FF0000A2FE009F051
:101CA000800030B11E48028831464046FFF764FE8E
:101CB00007E00A9828B91B48028831464046FFF7DA
:101CC0005BFE4FEA49604FEA1069701C86B2164805
:101CD0004088B04200DCDDE7A6EB0B00A0420AD151
:101CE0005E4608F101001FFA80F80F480088404561
:101CF00000DCCFE706E00AF1010000F0FF0ABAF1CC
:101D0000080FCCDB00BF681CC5B200988542A5DB7C
:101D100000BFBFE754590008C85D0008B863000859
:101D20006400002066000020680000202DE9FF4FBD
:101D300081B0074691461E460E9D4FF0000A0024D2
:101D400039E0301B401EC1B20A20FFF723FFB9FB68
:101D5000F0F00A21B0FBF1F201FB1208BAF1000F1A
:101D600016D1701EA04213DDB8F1000F0ED1002075
:101D7000AB4605EBDB71491001FB0471009088B2A2
:101D80002B4620220299FFF73DFF12E04FF0010A97
:101D90000020AB4605EBDB71491001FB047100909C
:101DA00088B208F13001CAB22B460299FFF72AFF28
:101DB00000BF601CC4B2B442C3DB05B0BDE8F08F05
:101DC0002DE9F84704460D4690469946DDE9096736
:101DD00004F0FF0A08EB04001FFA80F809EB050085
:101DE0001FFA80F916E0444502DB5446A81985B273
:101DF0004D4500DB14E0002000903A783346294638
:101E00002046FFF7FFFE304606EBD07104EB610180
:101E10008CB27F1C38787E2802DC38782028E2DA01
:101E200000BFBDE8F8870000014908807047000046
:101E3000FE07006C01490880704700000008006C34
:101E40000112024A1180C1B2118070470008006C73
:101E500008B50121482000F007F92020ADF8000066
:101E600010208DF8030003208DF802006946094810
:101E7000FFF737F920210748FFF708FA2020ADF8CF
:101E8000000069460448FFF72CF920210248FFF7BB
:101E9000FDF908BD000C01400018014070B5002498
:101EA000002508E00620FFF7F3F90444052002F0BE
:101EB00035FF681CC5B20A2DF4DB0A20B4FBF0F430
:101EC000B4F57A6F01D94FF47A642820B4FBF0F0AE
:101ED000C0F16400C0B270BD00B587B001218020A0
:101EE00000F0C2F80121C80300F0BEF80121C803C8
:101EF00000F0CAF800214FF4004000F0C5F84FF49C
:101F00008070ADF8180000208DF81B0006A9184855
:101F1000FFF7E7F81748FEF7E9FD002001908DF87C
:101F200008008DF809004FF4602003900020049011
:101F300001208DF8140001A90E48FEF727FE0121AB
:101F40000C48FEF7C8FD0B48FEF7A4FE00BF094889
:101F5000FEF711FE0028FAD10648FEF7ABFE00BFDF
:101F60000448FEF7F1FD0028FAD107B000BD0000DB
:101F7000001C0140003C014000BFFEE7704700002C
:101F800070B5002100230F22C47804B3154C2468D7
:101F900004F4E064C4F5E064210AC1F10403CA401A
:101FA000447804FA03F184781440214309010E4C6B
:101FB0000678A155047804F01F050124AC4005788B
:101FC0006D11AD0005F1E025C5F8004109E0047888
:101FD00004F01F050124AC40044D0678761145F845
:101FE000264070BD0CED00E000E400E080E100E080
:101FF00002490143024A1160704700000000FA05DF
:102000000CED00E07047000029B1064A5269024316
:10201000044B5A6104E0034A52698243014B5A61FE
:10202000704700000010024029B1064AD2690243FD
:10203000044BDA6104E0034AD2698243014BDA615E
:10204000704700000010024029B1064A126902439D
:10205000044B1A6104E0034A12698243014B1A617E
:10206000704700000010024029B1064A92690243FD
:10207000044B9A6104E0034A92698243014B9A61DE
:10208000704700000010024029B1064AD26802439E
:10209000044BDA6004E0034AD2688243014BDA6001
:1020A000704700000010024030B5002100220024DB
:1020B00000232D4D6D6805F00C0121B1042905D0D8
:1020C000082923D105E0294D056022E0274D056050
:1020D0001FE0254D6D6805F47012234D6D6805F401
:1020E0008034022505EB92421CB9214D5543056011
:1020F0000BE01D4D6D6805F400351DB11C4D5543B9
:10210000056002E0194D5543056002E0174D05607A
:1021100000BF00BF144D6D6805F0F0010909154DB1
:102120006B5C0568DD4045600F4D6D6805F4E0614E
:10213000090A104D6B5C4568DD4085600A4D6D688D
:1021400005F46051C90A0B4D6B5C4568DD40C56004
:10215000054D6D6805F44041890B074D6B5CC56802
:10216000B5FBF3F5056130BD0010024000127A00A6
:1021700000093D0003000020130000202DE9F04776
:1021800004460D46914698460026002700F052F876
:10219000B9F1000F16D0C8F3074004EB8401244ABC
:1021A00011444855C8F3072104EB84022048193034
:1021B0001044415504EB84021D483230104400F8AD
:1021C000058012E0002004EB8401194A11444855AF
:1021D000002104EB8402164819301044415504EBE9
:1021E0008402134832301044415500261BE000277A
:1021F00015E007EB870C0E4B323363449A5D07EB17
:102200008703DFF82CC06344995D07EB870C084B0C
:1022100019336344985D00F0B7F8781CC7B2052FF6
:10222000E7DB701CC6B2052EE1DBBDE8F0870000DD
:102230004E05002010B5002406E00022114610468D
:1022400000F0A2F8601CC4B2192CF6DB00F020F8F4
:102250000A2002F063FD10BD08B501214020FFF700
:1022600003FF2020ADF8000010208DF803000320AC
:102270008DF8020069460548FEF733FF2021034828
:10228000FFF704F8FFF7D6FF08BD00000018014073
:1022900010B520210348FEF7F7FF502002F064FD3F
:1022A00010BD00000018014010B520211948FEF7AC
:1022B000EDFF00BF00BF00BF00BF00BF00BF00BFF9
:1022C00000BF00BF00BF00BF00BF20211148FEF7C4
:1022D000DBFF00BF00BF00BF00BF00BF00BF00BFEB
:1022E00000BF00BF00BF00BF00BF00BF00BF00BFF6
:1022F00000BF00BF00BF00BF00BF00BF00BF00BFE6
:1023000000BF00BF00BF00BF00BF00BF00BF00BFD5
:1023100000BF10BD0018014010B520211948FEF77C
:10232000B5FF00BF00BF00BF00BF00BF00BF00BFC0
:1023300000BF00BF00BF00BF00BF00BF00BF00BFA5
:1023400000BF00BF00BF00BF00BF00BF00BF00BF95
:1023500000BF00BF00BF00BF00BF00BF00BF00BF85
:1023600000BF20210748FEF78FFF00BF00BF00BF5E
:1023700000BF00BF00BF00BF00BF00BF00BF00BF65
:1023800000BF10BD0018014070B506460C4615464A
:10239000304600F007F8204600F004F8284600F028
:1023A00001F870BD70B5044600250BE004F0800014
:1023B00010B1FFF7B1FF01E0FFF776FF6006040EF2
:1023C000681CC5B2082DF1DB70BD00002DE9F04797
:1023D000074688464FF00009002400250026A24643
:1023E00000BF30E007EB87001949084410F804A04B
:1023F0004FF0000922E00AF0800030B1434601228C
:1024000031462846FFF7BAFE05E043460022314632
:102410002846FFF7B3FE4FEA4A604FEA106A701C85
:10242000C6B2052E06D10026681CC5B2052D01D105
:10243000BDE8F08709F1010000F0FF09B9F1050FCF
:10244000D9DB601CC4B2052CCCDB00BFF0E7000078
:102450006CA2000808B58020ADF8000048208DF877
:10246000030069460148FEF73CFE08BD000C014030
:1024700008B58020ADF8000003208DF80200102080
:102480008DF8030069460248FEF72BFE08BD0000E8
:10249000000C0140704710B500F002F810BD0000BC
:1024A0000CB50020019000903348006840F4803063
:1024B0003149086000BF3048006800F400300090E7
:1024C0000198401C0190009818B90198B0F5A06FD0
:1024D000F1D12948006800F4003010B101200090CB
:1024E00001E0002000900098012843D123480068B3
:1024F00040F01000214908600846006820F0030001
:1025000008600846006840F0020008601A48406809
:10251000194948600846406848600846406840F4E9
:10252000806048600846406820F47C104860084697
:10253000406840F4E81048600846006840F0807049
:10254000086000BF0C48006800F000700028F9D057
:102550000948406820F00300074948600846406881
:1025600040F00200486000BF0348406800F00C00E3
:102570000828F9D10CBD00000010024000200240E4
:10258000042808D14FF0E021096941F004014FF01F
:10259000E022116107E04FF0E021096921F0040118
:1025A0004FF0E022116170477047000010B50446FB
:1025B0006FF00400FFF7E4FFE11704EB5171C1F382
:1025C000C701074A11701046007800EB4001C1EBCB
:1025D000C0104FF6FF7101EAC0000249088010BD2B
:1025E000720000207400002010B51348006840F00D
:1025F00001001149086008464068104908400E492A
:102600004860084600680E4908400B4908600846C3
:10261000006820F4802008600846406820F4FE002E
:1026200048604FF41F008860FFF735FF4FF00060EF
:102630000449086010BD0000001002400000FFF8CF
:10264000FFFFF6FE08ED00E000B59DB00121080295
:10265000FFF7DAFC01200790002008900F20099076
:1026600000200A900B900C900D9015200090019086
:10267000052002900020039004900590069006200B
:102680000E9000200F9010901020119000201290BA
:1026900014901390159016904FF4805017900020CE
:1026A00018904FF48040199000201A9007A81B90B2
:1026B000CDF870D00EA8FEF7A1FC01210620FEF790
:1026C00083FC1DB000BD000008B501214FF4B470BB
:1026D000FFF7CAFC4CF23370ADF8000018208DF8FB
:1026E000030003208DF8020069461848FEF7F9FC44
:1026F0004FF68070ADF8000018208DF8030003201D
:102700008DF8020069461248FEF7EBFC41F2010029
:10271000ADF8000018208DF8030003208DF80200AA
:1027200069460C48FEF7DDFC0120ADF800001020E2
:102730008DF8030003208DF8020069460648FEF775
:10274000D0FC01200549086008BD000000140140CC
:102750000018014000200140000C0140808121420E
:1027600010B5FFF7B1FFFFF76FFF322002F0D6FA86
:10277000D020FFF759FBFFF719FA89498880FFF746
:1027800015FA874988800846818886A001F042FCB6
:102790001120FFF749FB4FF4FA7401E0601E84B288
:1027A000002CFBDCB920FFF73FFBFF20FFF742FBCB
:1027B0008320FFF73FFB5720FFF73CFB4FF4FA74F1
:1027C00001E0601E84B2002CFBDCB120FFF72CFB83
:1027D0000020FFF72FFB1420FFF72CFB1C20FFF736
:1027E00029FB1C20FFF726FBC320FFF723FB442017
:1027F000FFF720FB7020FFF71DFB4FF4FA7401E098
:10280000601E84B2002CFBDCB420FFF70DFB2220FD
:10281000FFF710FB4020FFF70DFB0020FFF70AFB3E
:102820002A20FFF707FB2A20FFF704FB2020FFF7F1
:1028300001FB9120FFF7FEFA4FF4FA7401E0601EED
:1028400084B2002CFBDC3620FFF7EEFA4C20FFF7B9
:10285000F1FAC020FFF7E8FA5020FFF7EBFA50201A
:10286000FFF7E8FA0120FFF7E5FA3C20FFF7E2FA6C
:10287000C820FFF7DFFA0820FFF7DCFA0020FFF797
:10288000D9FA0820FFF7D6FA0420FFF7D3FA4FF45D
:10289000FA7401E0601E84B2002CFBDC4FF4FA7481
:1028A00001E0601E84B2002CFBDCE020FFF7BCFAE4
:1028B0000B20FFF7BFFA1120FFF7BCFA1E20FFF72D
:1028C000B9FA3020FFF7B6FA3A20FFF7B3FA4320FF
:1028D000FFF7B0FA4E20FFF7ADFA5620FFF7AAFA3D
:1028E0004520FFF7A7FA3F20FFF7A4FA3920FFF7AA
:1028F000A1FA3220FFF79EFA2F20FFF79BFA2A2039
:10290000FFF798FA2920FFF795FA2120FFF792FAAE
:102910000B20FFF78FFA1120FFF78CFA1E20FFF72C
:1029200089FA3020FFF786FA3A20FFF783FA43202E
:10293000FFF780FA4E20FFF77DFA5620FFF77AFA6C
:102940004520FFF777FA3F20FFF774FA3920FFF7A9
:1029500071FA3220FFF76EFA2F20FFF76BFA2A2068
:10296000FFF768FA2920FFF765FA2120FFF762FADE
:102970000020FFF75FFA0120FFF75CFA3A20FFF72B
:1029800053FA0520FFF756FA2920FFF74DFA0020E9
:10299000FEF7CEFF4FF6FF70FEF7A6FF10BD00005A
:1029A00068000020204C43442049443A25780D0A11
:1029B0000000000010B50121084800F06CF838B1A3
:1029C0000748006808B9012000E0002004490860B9
:1029D0000121024800F050F810BD0000000800403E
:1029E0009401234210B50121094800F054F868B160
:1029F0000848008840F40040064908800121044846
:102A000000F03AF80021024800F039F810BD00004B
:102A100000140040700000207FB505460C460121DF
:102A20002020FFF701FBADF80450ADF80040002076
:102A3000ADF80600ADF8020069460E4800F048F80F
:102A4000012211460B4800F037F80121094800F037
:102A500016F837208DF80C0000208DF80D000220AC
:102A60008DF80E0001208DF80F0003A8FFF788FAFB
:102A70007FBD000000140040CA430282704721B1AC
:102A8000028842F00102028004E002884FF6FE73E1
:102A90001A400280704730B502460020002300240F
:102AA000158A05EA0103958905EA010413B10CB101
:102AB000012000E0002030BD1AB183890B438381DF
:102AC00002E083898B4383817047818470470000D3
:102AD000002202881D4B98420ED01D4B98420BD00D
:102AE000B0F1804F08D01B4B984205D01A4B98424A
:102AF00002D01A4B984204D14FF68F731A404B887C
:102B00001A43174B984207D0164B984204D04FF601
:102B1000FF431A40CB881A4302808B8883850B8839
:102B200003850A4B98420BD0094B984208D00E4BB4
:102B3000984205D00D4B984202D00D4B984201D1DE
:102B40000B7A03860123838270470000002C01402A
:102B5000003401400004004000080040000C004028
:102B600000100040001400400040014000440140BB
:102B7000004801402DE9FC5F04460D4617461E46FD
:102B8000DDE90EABDDE90C894FF478405749088048
:102B900057A01021CDE90010564843880288A02193
:102BA0002820FFF70DF954A01021CDE9001051485D
:102BB00043880288A0217820FFF702F94FA0102156
:102BC000CDE900104B4843880288B4212820FFF744
:102BD000F7F84BA01021CDE9001046484388028841
:102BE000B4217820FFF7ECF846A01021CDE90010C1
:102BF000404843880288C8212820FFF7E1F842A016
:102C00001021CDE900103B4843880288C821782074
:102C1000FFF7D6F83DA01021CDE9001035484388D4
:102C20000288DC212820FFF7CBF839A01021CDE95C
:102C30000010304843880288DC217820FFF7C0F874
:102C400034A01021CDE900102A4843880288F021E1
:102C50002820FFF7B5F8102004232246A021009079
:102C60004020FFF763F8102004232A46A02100909B
:102C70009020FFF75BF8102004233A46B42100901F
:102C80004020FFF753F8102004233246B42100906F
:102C90009020FFF74BF8102004234246C8210090F3
:102CA0004020FFF743F8102004234A46C821009033
:102CB0009020FFF73BF8102004235246DC210090BF
:102CC0004020FFF733F8102004235A46DC210090FF
:102CD0009020FFF72BF8102003230090F0216020B4
:102CE000109AFFF723F8BDE8FC9F00006400002065
:102CF00078313A006800002079313A0078323A00A1
:102D000079323A0078333A0079333A0078343A002D
:102D100079343A006661632069733A0000B597B070
:102D2000002012900B9012901F20FE4908804FF651
:102D3000FF70FD490880FEF7D7FD4FF47840F94950
:102D400008804FF6FF70FEF7CFFD0020F5490880A0
:102D5000F648006810216423A022CDE90010282144
:102D60000846FFF72DF84FF478421421084600F08A
:102D700003FC0020EE4988868863D0E3EC48406875
:102D80000A9001200A998847E94890F8340000F039
:102D9000C00040287AD100200B90E548808E20F0BA
:102DA0004000E34988860846818913AA129822F8D0
:102DB0002010DF48018C129802EB800041801298AD
:102DC000401CC0B212901298012806D0022815D0DB
:102DD000032829D0042810D141E04FF6FF721421B6
:102DE000084600F0C9FBD3480088143880B24FF47D
:102DF000784214210A9000F0BFFB80E3CD480088A0
:102E0000143880B24FF6FF7214210A9000F0B4FB20
:102E1000C8484088143880B24FF4784201460A907E
:102E2000142000F0A9FB6AE3C2484088143880B23D
:102E30004FF6FF7201460A90142000F09DFBBD483A
:102E40004088143880B20A90BA480088143880B29A
:102E50004FF4784209900A9900F08EFB4FE3BDF8D9
:102E60004C00BDF85010401A0A90002801DB0A9867
:102E700001E00A9840420F90BDF84E1013A8C08898
:102E8000081A0A90002802DB0A9802E038E30A9840
:102E900040420E900F9840430F900E9840430E9082
:102EA000DDE90E1008440590FDF7E1FACDE90601D1
:102EB00002F094FCCDE90801FDF713FB80B21190FC
:102EC000BDF85400BDF85810401A0A90002801DBE4
:102ED0000A9801E00A9840420F9013A84189C089DE
:102EE000081A0A90002801DB0A9801E00A9840427B
:102EF0000E900F9840430F900E9840430E90DDE9DE
:102F00000E1008440590FDF7B2FACDE9060102F073
:102F100065FCCDE90801FDF7E4FA80B21090109845
:102F2000FDF7A0FA09901198FDF79CFA089009990D
:102F3000FDF7DFF90A90FDF7EDFACDE90C014FF04E
:102F400066327D4BDDE90C01FDF7F8FA0AD37B4AC6
:102F50007B4BDDE90C01FDF709FB03D3119808B1A8
:102F60001098E8BB0020129072484088143880B254
:102F70000A9070480088143880B24FF6FF720990AA
:102F80000A9900F0F9FA4FF478421421084600F04B
:102F9000F3FA00226B4BDDE90C01FDF7E8F9CDE90E
:102FA0000801FDF79EFA80B213A90A90C989BDF8FD
:102FB000582013AB5B89CDE90132CDE90310BDF890
:102FC0005400009013A8C0880990BDF850000890E4
:102FD000BDF84E000790BDF84C00069007A900E030
:102FE00003E00EC9FFF7C6FD99E2BDF84C00BDF83D
:102FF0005410401A0A90002801DB0A9801E00A9850
:1030000040420F90BDF84E1013A84089081A0A904C
:10301000002801DB0A9801E00A9840420E900F98C0
:1030200040430F900E9840430E90DDE90E10084487
:103030000590FDF71CFACDE9060102F0CFFBCDE9C2
:103040000801FDF74EFA80B21190BDF85000BDF8AE
:103050005810401A0A90002801DB0A9801E00A98EB
:1030600040420F9013A8C188C089081A0A9000280E
:1030700001DB0A9801E00A9840420E900F98404305
:103080000F900E9840430E90DDE90E100844059015
:10309000FDF7EDF9CDE9060102F0A0FBCDE908014D
:1030A000FDF71FFA80B210901098FDF7DBF9099038
:1030B0001198FDF7D7F908900999FDF71AF90A90C8
:1030C000FDF728FACDE90C014FF066321A4BDDE925
:1030D0000C01FDF733FA06D3184A194BDDE90C0150
:1030E000FDF744FA54D20020129012484088143858
:1030F00080B20A900F480088143880B24FF6FF72F1
:1031000009900A9900F038FA4FF4784214210846E1
:1031100000F032FA00220B4BDDE90C01FDF727F934
:1031200012E00000640000206600002050590008F2
:1031300018000020680000206666EE3FCDCCCCCCA5
:10314000CCCCF03F00005940CDE90801FDF7C9F9AA
:1031500080B213A90A90C989BDF8582013AB5B89C6
:10316000CDE90132CDE90310BDF85400009013A859
:10317000C0880990BDF850000890BDF84E00079037
:10318000BDF84C00069007A90EC9FFF7F3FCC6E195
:10319000BDF85000BDF85410401A0A90002801DB19
:1031A0000A9801E00A9840420F9013A8C18840890C
:1031B000081A0A90002801DB0A9801E00A984042A8
:1031C0000E900F9840430F900E9840430E90DDE90B
:1031D0000E1008440590FDF74AF9CDE9060102F00A
:1031E000FDFACDE90801FDF77CF980B21190BDF838
:1031F0004C00BDF85810401A0A90002801DB0A98CC
:1032000001E00A9840420F90BDF84E1013A8C08903
:10321000081A0A90002801DB0A9801E00A98404247
:103220000E900F9840430F900E9840430E90DDE9AA
:103230000E1008440590FDF71AF9CDE9060102F0D9
:10324000CDFACDE90801FDF74CF980B21090109845
:10325000FDF708F909901198FDF704F9089009990C
:10326000FDF747F80A90FDF755F9CDE90C014FF04D
:103270006632AD4BDDE90C01FDF760F906D3AB4AD0
:10328000AB4BDDE90C01FDF771F940D20020129043
:10329000A8484088143880B20A90A648008814389C
:1032A00080B24FF6FF7209900A9900F065F94FF469
:1032B00078421421084600F05FF900229E4BDDE9B8
:1032C0000C01FDF754F8CDE90801FDF70AF980B2C9
:1032D00013A90A90C989BDF8582013AB5B89CDE9C1
:1032E0000132CDE90310BDF85400009013A8C08846
:1032F0000990BDF850000890BDF84E000790BDF849
:103300004C00069007A90EC9FFF734FC07E1BDF891
:103310005000BDF84C10401A0890FDF79AF80A903A
:103320008448008828380890FDF793F809900A9996
:10333000FCF7DFFF81498863BDF85000BDF84C10F1
:1033400008440590FDF785F806907C48806B01469F
:1033500005900698FCF79BFF089076480088069039
:10336000FDF780F807900899FCF78BFF4FF080413C
:103370000990FCF7BEFF0A90FDF786F800B26F498E
:10338000A1F8400013A84089BDF84E10401A0890DB
:10339000FDF75FF80A906748408828380890FDF7E5
:1033A00058F809900A99FCF7A4FF6449C86313A868
:1033B0004089BDF84E1008440590FDF74AF8069084
:1033C0005E48C06B014605900698FCF760FF0890C8
:1033D000584840880690FDF745F807900899FCF793
:1033E00050FF4FF080410990FCF783FF0A90FDF7F2
:1033F0004BF800B25149A1F842000846806B089092
:10340000FDF742F80990002801DB099801E00998CE
:10341000404202280DDC4948C06B0890FDF734F8A3
:103420000A90002801DB0A9801E00A98404202282D
:1034300042DD002012903F484088143880B20A9044
:103440003C480088143880B24FF6FF7209900A9900
:1034500000F092F84FF478421421084600F08CF8FE
:1034600037A01021CDE90010324840880A90314839
:103470000088099002461A2128200A9BFEF7A0FC2A
:103480002E4890F8440008B9012000E000202B49A4
:1034900081F84400084690F8440030B190202D494E
:1034A0000870D0202C49087005E0D0202949087008
:1034B00090202949087032E01F20284908804FF6E3
:1034C000FF70FEF711FA26A01021CDE9001019486F
:1034D00040880A9017480088099002466E212320F0
:1034E0000A9BFEF76DFC4FF47A7001F017FC00F0B8
:1034F00037FA4FF6FF70FEF7F7F917B000BD00BFBF
:103500000A2001F00BFC0B98401C80B20B900B982A
:10351000B0F57A7F02DD00F067F801E000BF2DE42E
:1035200000BF00BFE9E700006666EE3FCDCCCCCC23
:10353000CCCCF03F6800002000005940180000206B
:103540005450204E65656420726561646A757374B9
:1035500021000000600000206100002064000020C5
:10356000546F7563682053637265656E2041646AA9
:10357000757374204F4B210070B504460D461646F6
:103580001848068004F10D018AB2193988B22B4619
:103590002946FEF7FFF905F10D0083B2193881B213
:1035A00022462046FEF7F6F96A1C91B2621C90B2E0
:1035B000FEF748FA6A1C91B2621E90B2FEF742FA18
:1035C0006A1E91B2621C90B2FEF73CFA6A1E91B27A
:1035D000621E90B2FEF736FA062229462046FEF712
:1035E0005FFA70BD6400002070B5D520FDF781FB47
:1035F00004460A2C44D10421C820FDF764FB04468C
:103600002046FCF726FF05461E49FCF772FE1E49C0
:1036100088630421CC20FDF756FB04462046FCF7C6
:1036200018FF05461749FCF764FE1749C8630221D5
:10363000D020FDF748FB00B21349A1F84000022159
:10364000D220FDF740FB00B20F49A1F84200D42080
:10365000FDF74FFB0C4981F84400084690F8440000
:1036600030B1902009490870D0200949087005E060
:10367000D02006490870902005490870012070BDCF
:103680000020FCE720BCBE4C180000206000002099
:103690006100002008B501218820FEF7E5FC02202A
:1036A000ADF8000010208DF8030003208DF8020013
:1036B00069462848FDF715FD02212648FDF7E6FD7D
:1036C0000420ADF8000048208DF803006946214829
:1036D000FDF707FD04211F48FDF7D8FD4FF42060DA
:1036E000ADF8000010208DF8030003208DF80200D3
:1036F00069461948FDF7F5FC4FF420611648FDF7BF
:10370000C5FD4FF48060ADF8000048208DF803003F
:1037100069461148FDF7E5FC4FF480610E48FDF75E
:10372000B5FD0E49A1F1140000F0A2F8FDF7C7FAAB
:10373000FFF75AFF08B1002008BD4FF6FF70FEF7F3
:10374000D3F8FFF7EBFA00F00BF9FFF74DFF01207C
:10375000F2E70000000C0140001C0140380000208E
:1037600070B506460025002400201E4908601E4949
:10377000C1F8A4011D490860304600F0B1F90620E7
:1037800001F0F2FA00201A49C1F88401012001F089
:10379000EBFA01201349086001F0E6FA0020144911
:1037A000C1F8840100BF15E04FF6FF7000EA440441
:1037B00000200C490860012001F0D6FA01200C49D4
:1037C000C1F8840107487C38006808B1601C84B2E5
:1037D000681CC5B2102DE7DB2411012003490860E5
:1037E000204670BD8481214200802342AC81234267
:1037F000008021422DE9F04194B08046002700244A
:1038000006E04046FFF7ACFF2DF81400601C84B2C0
:10381000282CF6DB002416E0601C85B20FE03DF892
:1038200014003DF81510884207DD3DF814603DF89E
:1038300015002DF814002DF81560681C85B2282D90
:10384000EDDB601C84B2272CE6DB0027012404E0BA
:103850003DF814000744601C84B2272CF8DB2620B6
:10386000B7FBF0F086B2304614B0BDE8F08100003E
:103870002DE9F04104460D4607480078FFF7BAFFEE
:10388000064606480078FFF7B5FF074626802F80DA
:103890000120BDE8F08100006000002061000020F0
:1038A0007FB504460D4602A903A8FFF7E1FF0646CF
:1038B00016B9002004B070BD694601A8FFF7D8FF13
:1038C00006460EB90020F5E7BDF80400BDF80C105F
:1038D000884206DCBDF80C10BDF80400323081428D
:1038E0000CDBBDF80C00BDF80410884236DCBDF8D6
:1038F0000410BDF80C00323081422FDABDF8000010
:10390000BDF80810884206DCBDF80810BDF80000BC
:10391000323081420CDBBDF80800BDF8001088424F
:103920001CDCBDF80010BDF808003230814215DA09
:10393000BDF80C10BDF80420881800EBD071C1F35D
:103940004F012180BDF80810BDF80020881800EB59
:10395000D071C1F34F0129800120ABE70020A9E716
:1039600070B51B49886B1B49FCF791FC0546FCF7B9
:103970008BFD044604222146C820FDF7E6F91449D0
:10398000C86B1449FCF783FC0546FCF77DFD044633
:1039900004222146CC20FDF7D8F90D48B0F940109B
:1039A0000222D020FDF7D1F90948B0F942100222D5
:1039B000D220FDF7CAF9064890F84410D420FDF74C
:1039C000D9F90A242146D520FDF7D4F970BD0000AD
:1039D0001800002020BCBE4C2DE9F04104463E48B2
:1039E0000068002855D12CB13C49A1F11400FFF723
:1039F00057FF3DE03949A1F11400FFF751FFB8B37B
:103A000036492039B1F94000FCF723FD0746334918
:103A100020398889FCF726FD804630482038816BA4
:103A20004046FCF734FC06463946FCF7D8FB054611
:103A3000FCF743FD294920398881B1F94200FCF7A0
:103A400008FD074625492039088CFCF70BFD804608
:103A500022482038C16B4046FCF719FC064639461F
:103A6000FCF7BDFB0546FCF728FD1C4920390884FE
:103A70001A48203890F8340000F0800020BBC020A5
:103A8000164920398886084681898182018C018502
:103A90001AE01248203890F8340000F0800040B15D
:103AA0000E482038808E20F080000C49203988860E
:103AB0000AE0002109482038818201854FF6FF7015
:103AC00006492039888108840448203890F8340059
:103AD00000F08000BDE8F0812881234238000020FA
:103AE00070B50446002500BF17E004F0800018B14F
:103AF00001200B49086002E00020094908606006C7
:103B0000040E002007490860012001F02DF9012072
:103B10000549C1F88401681CC5B2082DE5DB70BDFC
:103B2000A4812342848121420080214210B540F2C9
:103B300025511D4800F0A7F910B31B4800F05EFAAC
:103B4000C4B21A48008800F40040C8B91748008879
:103B500000F4804060B10A2C03D000201349088093
:103B600020E01248008840F400401049088019E025
:103B70000D2C06D10D48008840F480400B49088088
:103B800010E00A480088C0F30D0009490C540748AA
:103B90000088401C0549088008460088C72801DDC8
:103BA0000020088010BD0000003801407600002091
:103BB0009905002010B586B0044601210420FEF7C7
:103BC00053FA01218803FEF74FFA4FF40070ADF865
:103BD000140003208DF8160018208DF8170005A991
:103BE0001E48FDF77EFA4FF48060ADF81400042003
:103BF0008DF8170005A91948FDF773FA0194002004
:103C0000ADF80800ADF80A00ADF80C00ADF81000F2
:103C10000C20ADF80E0001A9114800F083F9012134
:103C20000F4800F0C8F840210D4800F0BBF8012211
:103C300040F225510A4800F050F925208DF8000087
:103C400003208DF801008DF8020001208DF803009B
:103C50006846FEF795F906B010BD00000008014067
:103C60000038014010B540F22551164800F00BF91C
:103C7000F8B1144800F0C2F9C4B21348008800F447
:103C80000040B0B910480088B0F5167F12DA002164
:103C90000E48FEF71AFF0C48008818B901210B489E
:103CA000FEF7EDFE08490888411C074A11800849C3
:103CB0000C5405E00448008840F4004002490880A4
:103CC00010BD0000004800407000002000140040BB
:103CD0009E00002010B586B0044601210820FEF7A2
:103CE000C3F901218804FEF79FF92A4800F070F813
:103CF0004FF48060ADF8100003208DF812001820FA
:103D00008DF8130004A92448FDF7EBF94FF4006087
:103D1000ADF8100004208DF8130004A91E48FDF72B
:103D2000E0F900940020ADF80400ADF80600ADF80D
:103D30000800ADF80C000C20ADF80A0069461548E3
:103D400000F0F0F80121134800F035F8012240F2AC
:103D50002551104800F0C1F827208DF814000220EA
:103D60008DF8150003208DF8160001208DF817003E
:103D700005A8FEF705F941F61F416320FEF74CFE4A
:103D800000200649088000210548FEF778FE06B0AD
:103D900010BD000000480040000C014070000020F1
:103DA0000014004001F40072B2F5007F00D100BFA2
:103DB000CA430280704721B1828942F40052828155
:103DC00004E082894DF6FF731A408281704700003B
:103DD00010B504462048844209D101218803FEF72A
:103DE00053F900214FF48040FEF74EF932E01B48B2
:103DF000844209D101214804FEF726F900214FF43D
:103E00000030FEF721F925E01548844209D101214F
:103E10008804FEF719F900214FF48020FEF714F909
:103E200018E01048844209D10121C804FEF70CF9BA
:103E300000214FF40020FEF707F90BE00A48844206
:103E400008D101210805FEF7FFF800214FF480108A
:103E5000FEF7FAF810BD00000038014000440040B1
:103E600000480040004C0040005000400246002046
:103E7000B1F5007F00D100BF13880B400BB10120CA
:103E800000E00020704770B50246002400230025A2
:103E9000002040F66A16B14200D100BFC1F34215BE
:103EA00001F01F03012606FA03F3012D02D19689C2
:103EB000334006E0022D02D1168A334001E0968A93
:103EC00033400C12012606FA04F41688344013B16C
:103ED0000CB1012000E0002070BDF0B503460024C5
:103EE00000260025002040F66A17B94200D100BF25
:103EF0001846C1F3421401F01F06012707FA06F520
:103F0000012C01D10C3004E0022C01D1103000E072
:103F100014301AB107682F43076002E00768AF4307
:103F20000760F0BD2DE9F04786B005460E46002437
:103F3000A24600BFA1460027B08900B100BF2F46AE
:103F40002C8A4CF6FF700440F08804432C82AC8924
:103F50004EF6F3100440B088318908437189084354
:103F60000443AC81AC8A4FF6FF400440B08904435F
:103F7000AC8201A8FEF798F81F48874202D1DDF80D
:103F800010A001E0DDF80CA0A88900F4004040B1C9
:103F90000AEBCA0000EB0A1031684900B0FBF1F8E7
:103FA00007E00AEBCA0000EB0A1031688900B0FB99
:103FB000F1F86420B8FBF0F004012009642101FB52
:103FC0001089A88900F4004040B1322000EBC900FC
:103FD000B0FBF1F000F00700044308E0322000EBF2
:103FE00009106421B0FBF1F000F00F0004432C81B4
:103FF00006B0BDE8F087000000380140014688881F
:10400000C0F308007047C1F308028280704700BF08
:10401000FEE700000FB4054B10B503A9044A02984F
:1040200000F006F910BC5DF814FB0000314F0008E9
:10403000780000200FB4084B10B504A902AA039819
:1040400000F0F6F8044602A9002000F0D4FD204656
:1040500010BC5DF814FB0000F74B000837B51446A0
:104060000846064B6A46214600F042FA0446694675
:10407000002000F0C5FD20463EBD0000014C0008B8
:1040800002E008C8121F08C1002AFAD17047704721
:10409000002001E001C1121F002AFBD1704700007F
:1040A00001490860704700007C0000202DE9FF5F97
:1040B00082B00021DDE90430020DDDF840B0034399
:1040C00018D044F61050A2F2FF3242431514119852
:1040D00001281FD0A5EB0B00401C5FEA000A4FF03F
:1040E00000064E4FDFF83891B046504615D5CAF15C
:1040F000000413E0119801244AA3012801D16FEABA
:104100000B010298119AC0E90031C0E9024206B0E1
:10411000BDE8F09FCBF10000DFE704460021404AF4
:10412000491842EB0450CDE9001012E0E00707D037
:1041300032463B4640464946FCF719F980468946D7
:1041400032463B4610461946FCF711F906460F4623
:104150006410002CEAD1DDE90401DDE90023BAF1A5
:10416000000F06DAFCF703F942464B46FCF7FFF86E
:1041700005E0FCF7A5FB42464B46FCF7A1FB0446D5
:104180000E460022284BFCF7F1F903D84FF0FF3020
:10419000014607E00022254B20463146FCF7E9FAAC
:1041A000FCF74EFC102409E0002C0ADB0A22002355
:1041B000FCF70AFA039B30321A55641E50EA0102DA
:1041C000F2D1641C039AC4F111031444119A012A18
:1041D00003D0012208430DD10AE0084304D0002097
:1041E0004FF0110B119072E7A3EB0B056D1E0DE064
:1041F0005B4504DD4FF0000205F1010504E003DA40
:104200004FF00002A5F10105002AECD002981199A7
:10421000C0E90231C0E9004579E700000000144020
:104220000000F03F300000000000F0430000E03FDD
:104230002DE9FF4F8DB09B460F460446002606E051
:1042400025280BD05A460F999047641C761C20787D
:104250000028F5D111B03046BDE8F08F0025A84602
:104260000122984900E0054314F8013F203B02FA7F
:1042700003F00842F7D120782E2817D114F8010F47
:1042800045F004052A280ED06FF02F022078A0F107
:10429000300109290AD808EB880102EB410100EB43
:1042A0000108641CF2E757F8048B641C20786C2822
:1042B0000DD004DC4C2812D06A2811D104E07428F7
:1042C0000DD07A280CD10AE045F4001507E061789A
:1042D00045F48015814202D1641C05F58015641CEB
:1042E0002078692844D008DC0028B3D0582867D04B
:1042F00063280FD0642808D13AE0702865D073286D
:1043000012D075285AD078285AD05A460F9990471B
:10431000761CD5E017F8040B8DF8000000208DF80E
:104320000100E946012003E057F8049B4FF0FF30FD
:1043300069074FF0000501D40AE06D1C45450DDA10
:104340008542FADB19F805100029F6D106E06D1C4C
:104350008542FCDB19F805100029F8D12E4404E051
:1043600019F8010B5A460F9990476D1EF8D2A7E035
:104370000A200021CDE90801C5F3025002280CD023
:1043800001CFC117021E71F100020CDA0023D0EB3D
:10439000030063EB01012D2208E0FF1D27F0070752
:1043A000F7E80201EEE72A0504D52B228DF8282034
:1043B00001223CE0EA073AD02022F7E70A2000E099
:1043C00010200021CDE9080107E01020002145F070
:1043D0000405CDE908014FF00808C5F30250022892
:1043E00010D001CF00214FF0000A2A0720D52278F3
:1043F000702A0DD0DDE908C38CF0100C5CEA030CC8
:104400000CD015E0FF1D27F00707F7E80201EAE7E7
:1044100040228DF828204FF0010A0CE050EA0103F9
:1044200006D030238DF828308DF8292002229246BC
:104430002278582A04D024A20DF120090B9209E019
:1044400026A2F9E7DDE90823FCF7BEF80B9B9B5C8D
:1044500009F8013D50EA0102F4D1ADEB090020302A
:104460000890680701D44FF001080899884503DDDA
:104470000898A8EB000000E000208046002506E038
:104480000AA85A46405D0F9990476D1C761C554509
:10449000F6DB04E030205A460F999047761CB8F1BD
:1044A0000001A8F10108F5DC05E019F8010B5A46F6
:1044B0000F999047761C0899481E08900029F4DC53
:1044C000641CC4E6092801003031323334353637F4
:1044D0003839616263646566000000003031323350
:1044E00034353637383941424344454600000000F0
:1044F0002DE9FF4F95B09A46884606460025EEE125
:10450000252877D100242746F94A0121039400E0A9
:10451000044316F8013F203B01FA03F01042F7D1A3
:1045200030782A2811D06FF02F033078A0F13002B4
:10453000092A16D8039A44F0020402EB820203EB24
:1045400042021044761C0390EFE758F8042B0392C4
:10455000002A03DA504244F40054039044F0020469
:10456000761C30782E2816D116F8010F44F004047A
:104570002A280DD06FF02F023078A0F13003092BDC
:1045800009D807EB870302EB4303C718761CF3E750
:1045900058F8047B761C30786C280FD006DC4C2849
:1045A00017D068280DD06A2814D104E0742810D0E0
:1045B0007A280FD10DE044F400140AE044F480148A
:1045C00001E044F440147278824202D104F5801470
:1045D000761C761C307866280BD013DC582877D0F0
:1045E00009DC002875D04528F6D04628F4D04728A5
:1045F0001AD193E118E0632835D0642879D0652872
:1046000012D18BE1702873D008DC6728F1D06928BB
:104610006FD06E280DD06F2806D1ACE073282CD057
:10462000752874D0782853D05246179990476D1C3E
:1046300054E1C4F30250022809D003280DD0D8F861
:10464000001004280DD00D6008F1040846E1D8F8E8
:104650000010EA17C1E90052F6E7D8F800100D8003
:10466000F2E70D70F0E718F8041B8DF80010002039
:104670008DF80100EB46012003E058F804BB4FF031
:10468000FF3061074FF0000102D40DE009F1010194
:104690008946B9420FDA8145F8DB1BF80910002979
:1046A000F4D108E009F1010189468142FADB1BF8E7
:1046B00009100029F6D103985346A0EB09072146BB
:1046C0003846179A00F080FA284400EB090507E005
:1046D00044E008E10DE01BF8010B524617999047A2
:1046E000B9F10109F7D2534621463846179AF2E04C
:1046F00039E00A21C4F302524FF0000B0091022A64
:1047000006D058F8040BC117032A09D00AE023E0A9
:1047100008F1070020F00702F2E80201904605E0E8
:1047200000B2C117042A01D140B2C117002906DA2C
:104730000A460021404261EB02012D2202E02205DF
:1047400004D52B228DF80420012203E0E20701D0DA
:104750002022F7E7914657E00A2100E010214FF0B0
:10476000000B00910BE010214FF0000B44F004040B
:104770000827009103E008204FF0000B0090C4F3DD
:104780000252022A05D058F8040B0021032A08D04F
:1047900008E008F1070020F00702F2E80201904665
:1047A00003E080B2042A00D1C0B24FF00009220712
:1047B0002AD53278702A07D0DDF800C08CF0100CB2
:1047C0005CEA0B0C05D00EE040228DF8042001229B
:1047D00008E050EA010306D030238DF804308DF84C
:1047E000052002229146009B83F0080353EA0B0345
:1047F0000AD150EA010201D1620705D530228DF8B5
:1048000004204FF001097F1E3278582A04D039A2C3
:104810000C920CAA02920BE03BA2F9E75B46009ACD
:10482000FBF7D2FE0C9B9B5C029A521E0292137005
:1048300050EA0102F2D1029804A9081A00F1200BF3
:10484000600702D524F4803400E001275F4502DDD3
:10485000A7EB0B0000E0002000EB0B010090039899
:104860004944401A0390E00306D453462146179A60
:10487000039800F0A9F90544002706E001A8524674
:10488000C05D179990476D1C7F1C4F45F6DBE00318
:104890000CD553462146179A039800F095F9054424
:1048A00004E030205246179990476D1C0099481E2D
:1048B00000900029F5DC08E0029802995246007841
:1048C000491C0291179990476D1CBBF10001ABF197
:1048D000010BF1DC5BE100F065F90544761C3078F2
:1048E00000287FF40DAE19B02846BDE8F08F000017
:1048F00009280100303132333435363738396162B6
:104900006364656600000000303132333435363779
:10491000383941424344454600000000600700D456
:10492000062708F1070020F00700F0E80223804680
:1049300003F0004C5FEA0C0001D097A009E02005CD
:1049400001D596A005E0E00701D095A001E0AFF207
:104950004C001390307823F0004365280CD006DC1F
:10496000452809D046281DD047287FD13BE066283E
:1049700018D067287AD136E00021112F01DB1120F1
:1049800000E0781CCDE9000104A90CA8FFF78EFB1C
:10499000DDE90D010C9A4FF0000B07F101091092AF
:1049A00000914EE04FF000400097CDE9011004A9BE
:1049B0000CA8FFF77BFBDDE90D020C9B0F994FF074
:1049C000000B91461093009211B9791C00EB01097C
:1049D000B7EB090003D4C0F1FF3B07F10109A9EBD4
:1049E0000700019042E0012F00DA01270021112F7A
:1049F00001DD112000E03846CDE9000104A90CA832
:104A0000FFF754FBDDE90D010C9A00914FF0000B0C
:104A1000B946109221070FD4009A4A4503DA91460D
:104A200001E0A9F10109B9F1010F05DD109AA9F121
:104A30000101515C3029F4D0B84202DA10F1040FC0
:104A400003DA0121CDE9011010E0002803DC8344E2
:104A5000A9EB000102E0411C494500DD8946A0EBBD
:104A60000B00401C01904FF000400290200705D43D
:104A70000198484502DB4FF0FF30019000208DF88F
:104A80004B0002980DF14B07B0F1004F25D00220EA
:104A90000C902B200D90029800280CDA40420290D6
:104AA0002D200D9007E00A210298FBF777FD3031A9
:104AB000029007F8011D0C99481E0C900029F2DCA9
:104AC00002980028EFD1791E0D980870307800F018
:104AD000200040F0450007F8020D11A8C01BC01DC2
:104AE00002901398007800B1012000EB09010198B1
:104AF00001EBE071029801440398401A401E0390B4
:104B0000E00306D453462146179A039800F05CF858
:104B100005441398007818B15246179990476D1CB8
:104B2000E00323D553462146179A039800F04CF82A
:104B300005441BE0BBF1000F07DB0098584504DD7E
:104B40001098179910F80B0001E017993020524681
:104B5000904701980BF1010B401E05F101050190F2
:104B600004D12E205246179990476D1CB9F10001CF
:104B7000A9F10109DEDC05E017F8010B524617998F
:104B800090476D1C0299481E02900029F4DC5346A0
:104B90002146179A03989EE62D0000002B00000086
:104BA000200000002DE9F041044600251E4617466E
:104BB000880404D405E039462020B0476D1C641EEB
:104BC000F9D52846BDE8F0812DE9F04104460025DD
:104BD0001E469046C80301D5302700E020278804F0
:104BE00004D505E041463846B0476D1C641EF9D532
:104BF0002846BDE8F0810A68531C0B6010707047AE
:104C00000A68531C0B6010707047000000B585B037
:104C100033493448FCF793F9FDF740F932490870FD
:104C2000304800780A2190FBF1F03030C0B28DF8A6
:104C300010002C48007890FBF1F201FB120030309C
:104C4000C0B28DF8110000208DF8120004A81021C8
:104C5000CDE90010254843880288C8213720FDF798
:104C6000AFF81F4800780A2190FBF1F03030C0B255
:104C70008DF80C001A48007890FBF1F201FB12004D
:104C80003030C0B28DF80D0000208DF80E0003A862
:104C90001021CDE90010154843880288E62137200D
:104CA000FDF78EF81048027811A102A8FFF7C2F9AB
:104CB00002A81021CDE900100C48438802884FF467
:104CC00082713720FDF77CF80748037804480278A2
:104CD0000448017807A0FFF79DF905B000BD00006A
:104CE00001000020000000200200002068000020D9
:104CF00025640000CEC2B6C83D2564A1E343202050
:104D0000CAAAB6C83D2564252552482020B9E2D557
:104D1000D5C7BFB6C8A3BA25640D0A000146114A1B
:104D200012884A434FF0E0235A6100229A611A46E2
:104D3000126942F001021A6100BF4FF0E0221069CF
:104D400000F001021AB100F48032002AF5D04FF0D1
:104D5000E022126922F001024FF0E0231A610022E2
:104D60009A617047740000200146114A12784A4344
:104D70004FF0E0235A6100229A611A46126942F00C
:104D800001021A6100BF4FF0E022106900F0010239
:104D90001AB100F48032002AF5D04FF0E0221269F7
:104DA00022F001024FF0E0231A6100229A6170475D
:104DB00072000020F0B585B00024A3E004EB84006D
:104DC000534901EB4000407A10B14FF4FC6001E020
:104DD0004FF47840054604EB84064D4F07EB46063A
:104DE0000095768804EB8407DFF824C10CEB4707B5
:104DF000FF883E44B3B204EB8406674637F816607A
:104E000004EB84070CEB4707BF883E44B2B204EBC7
:104E10008406674607EB4606718804EB840637F87C
:104E20001600FCF789FE04EB840607EB460676883D
:104E300004EB8407DFF8D8C00CEB4707FF883E443B
:104E4000B3B204EB8406674637F8166004EB8407B8
:104E50000CEB4707BF883E44B2B204EB84066746BA
:104E600007EB4606718804EB840637F81600FCF75A
:104E7000F9FD00202749088004EB8400394601EB46
:104E80004000007A012804D123A102A8FFF7D2F83C
:104E900018E004EB84001E4901EB4000007A022870
:104EA00004D11FA102A8FFF7C5F80BE004EB8400B2
:104EB000174901EB4000007A032803D11AA102A888
:104EC000FFF7B8F802A8102104EB8406104F07EB97
:104ED0004606CDE90010F38804EB840607EB46068E
:104EE000B28804EB840607EB460676880F36B1B22B
:104EF00004EB840637F816601436B0B2FCF760FF96
:104F0000601CC4B2032CFFF659AF05B0F0BD000021
:104F100080000020640000204C4544310000000067
:104F20004C4544320000000042454550000000005E
:104F300070B504460D46E1B20548FFF764F800BFBE
:104F400080210348FEF792FF0028F9D0204670BD6B
:104F500000380140F0B550203221282200EB4006F5
:104F6000022707FB0266164F3F88BD1B05EBD5766F
:104F7000C6F34F035024134D2B806C80A880E9802A
:104F80000125104E3572002575721D181544758166
:104F90003546AC81E88129820226AE740026EE7483
:104FA0008518022606FB0535064EB5823546EC828D
:104FB0002883698303262E7700266E77F0BD0000D4
:104FC00068000020800000201CB5002006490880F1
:104FD00006A01021CDE900100848438802880A2164
:104FE0000846FCF7EDFE1CBD6400002044657669B0
:104FF000636520436F6E74726F6C00006800002060
:1050000094B000201390129011901422FE490CA825
:10501000FBF7ACF800200B90002581460027804666
:1050200082468346059004904820FDF7BFFA4FF46E
:10503000A060FCF7DDFFFCF70BFF4FF4E130FEF75B
:10504000B9FDFDF78DFBFCF7E1FBFEF723FBFBF75A
:10505000B9FEFCF741FFFDF783FBFFF7B5FF4FF407
:10506000FA70FFF75BFE4FF6FF70FCF73DFCFDF7B3
:10507000F3F8FFF76FFFFFF79DFE4FF47840E34929
:105080000880E3A01021CDE90010E24909881E390B
:1050900088B210231E220021FCF792FE0120DE4977
:1050A0000860DE49C1F894010102DD48FCF7ECF824
:1050B000D84842880188DBA0FEF7ACFFE1A01021B0
:1050C000CDE90010D34843880288C8210A20FCF7A4
:1050D00077FEDFA01021CDE90010CE48438802887A
:1050E000E6210A20FCF76CFEDCA01021CDE90010BF
:1050F000C848438802884FF482710A20FCF760FE9A
:105100004FF47840C149088011E0D7A01021CDE9C3
:105110000010C0484388028832218220FCF750FEEC
:10512000D4A0FEF777FF4FF4FA70FFF7F7FDFBF717
:10513000B1FE0028E9D1D5A01021CDE90010B54875
:105140004388028832218220FCF73AFED1A0FEF784
:1051500061FF1DE0D4A0FEF75DFFD7A010210B4634
:10516000C822CDE900105A210A20FCF729FE4FF48D
:10517000FA70FFF7D3FDD4A010210B46C822CDE969
:1051800000105A210A20FCF71BFE6420FFF7C6FD21
:10519000FCF7F4F80028DDD1CFA0FEF73BFF1F207D
:1051A0009A490880FCF772F96420FFF7B7FD0020E8
:1051B000CC490880CAE20020FCF746FB0646012ED7
:1051C0001AD1FCF77FF80646FF2E57D00EB9012002
:1051D00000E0002006461EB9C3A0FCF77FF902E0FC
:1051E000C4A0FCF77BF9FCF751F9C5A0FCF776F9F0
:1051F000C820FFF793FD41E0032E13D1B9F1000F52
:1052000001D1012000E000208146B9F1000F35D125
:105210004FF6FF70B023F022A02100903220FCF75F
:105220008BFC2BE0022E29D1BAF1000F22D112A95A
:1052300013A8FBF784FE08BB9DF84CB00CA911988D
:1052400051F8200005901198401C052190FBF1F2C7
:1052500001FB1200C0B211904FF0010A0495FCF757
:10526000E9FF0A209BFBF0F0C0B203900599FDF71F
:10527000ADF803E0FCF7DEFF4FF0000A0020FEF778
:10528000ABFB00281DD0A1488189624800881E38E8
:10529000814217DD9D48008C102813DA4FF6FF700D
:1052A000FCF722FBFFF786FD59A01021CDE9001085
:1052B000584909881E3988B210231E220021FCF7A4
:1052C0007FFD70E000246BE004EB8400904901EB6B
:1052D0004000408804EB84018D4A02EB4101C988FB
:1052E000084404EB840102EB4101498804EB840289
:1052F000874B33F8122004EB8403DFF814C20CEB65
:1053000043039B881A4404EB84033CF81330CDE933
:105310000032CDE902107D48028C818923467DA0B0
:10532000FEF778FE7948808904EB8401784A32F8E8
:105330001110884232DD04EB8400114631F8100070
:1053400004EB840102EB4101898808446F49898993
:10535000884223DD6D48008C04EB840102EB41019F
:10536000498888421ADD04EB8400114601EB4000B5
:10537000408804EB840102EB4101C9880844634979
:10538000098C88420ADD214671A0FEF743FE2046C3
:1053900000F04AFAC820FFF7C1FC03E0601CC4B269
:1053A000032C91DB00BF322D21D1B9F1000F1BD0AE
:1053B0003A466CA106A8FEF73DFE06A810210B4652
:1053C000C822CDE90010A0213220FCF7F9FC06A983
:1053D00069A0FEF71FFE394662A000F087FA781C2C
:1053E000C7B2632F00DD0027FCF7C8F800253D4851
:1053F000008800F40040002804D01F2000231A4633
:10540000AA21BDE016E100003C590008640000201C
:10541000525354006800002094812142000023422E
:10542000000C014053637265656E205769647468AF
:105430003A2025642C204865696768743A20256401
:105440000A00000054656D703A20202043000000DF
:1054500048756D693A202020255248004C73656ECE
:105460003A202020202000004572726F72202020F8
:1054700000000000444854313120436865636B20CC
:105480004572726F72210D0A00000000537563634C
:1054900065737300444854313120436865636B2061
:1054A0004F4B210D0A0000004843303520457272F1
:1054B0006F72210D0A00000048433035204572729A
:1054C0006F72212020202000506C6561736520439D
:1054D0006865636B2121210048433035204F4B2103
:1054E0000D0A00007000002041542B524F4C453DE6
:1054F0003000000041542B524F4C453D310000001C
:1055000041542B5245534554000000001800002020
:1055100080000020546F7563683A20583D25642C44
:1055200020593D2564207C20427574746F6E2025BF
:10553000643A2058313D25642C2058323D25642C96
:105540002059313D25642C2059323D25640A000044
:10555000427574746F6E2025642070726573736574
:10556000640A00005052454849434E2048433035B4
:105570002025640D0A00000025730D0A00000000BC
:1055800000900A20FCF7D8FA7148008800F0FF0864
:105590000020704901F8080041466FA0FEF73AFD6F
:1055A0006C4970A0FEF736FDB8F10A0F02D0B8F1D1
:1055B0000B0F31D170A16748FAF703FE10B9002034
:1055C0007049086070A16348FAF7FBFD10B901202B
:1055D0006C4908606FA15F48FAF7F3FD10B900202D
:1055E0006F4908606FA15B48FAF7EBFD10B9012025
:1055F0006B4908606EA15748FAF7E3FD18B901201E
:1056000067490C3108606DA15248FAF7DAFD18B904
:10561000002063490C3108604E4810213223D1220A
:10562000CDE900104FF487710A20FCF7C9FB002078
:10563000474908800B98401CC0B20B9014210B986E
:1056400090FBF1F201FB120088BBFFF7DFFA5E4826
:1056500000780A2806DA0020514908605B49C1F841
:1056600094011BE058480078322807DA00204C49A2
:10567000086001205549C1F894010FE05448407A70
:1056800008B9012000E00020454908605048C07C6E
:1056900008B9012000E000203A4908604D48007830
:1056A000462805DD4FF480714B48FBF7EFFD0DE018
:1056B0004748407F28B14FF480714748FBF7E6FD2B
:1056C00004E04FF480714448FBF7DEFDBAF1000FAF
:1056D00037D00498281A642833D3BAF1010F06D0C2
:1056E000BAF1020F13D0BAF1030F28D119E0FCF779
:1056F000A1FD0A209BFBF0F100FB11B0C0B20390AA
:105700000599FCF763FE4FF0020A049518E0FCF7D8
:1057100091FD10200599FCF759FE4FF0030A0495FE
:105720000EE0FCF787FD0A209BFBF0F0C0B203906F
:105730000599FCF74BFE4FF0010A049500E000BF0D
:1057400000BF681CC5B20A20FFF7E8FA33E5000085
:10575000700000209E0000207265636C656E3D2520
:10576000640D0A005553415254335F52585F4255FD
:10577000463D25730D0A00002B4C454432204F4E08
:105780000D0A0000940123422B4C454432204F4621
:10579000460D0A002B4C454431204F4E0D0A0000A7
:1057A000948121422B4C454431204F46460D0A003E
:1057B0002B42454550204F4E0D0A00002B424545D7
:1057C00050204F46460D0A000200002000002342F0
:1057D0008000002001000020000C01402DE9F04174
:1057E00006460F46FBF7DBF8041E0D4618BF0120E6
:1057F000284320F00040C0F17F6000F1E040C00F7E
:105800000ED0301C18BF0120384320F00040C0F1FA
:105810007F6000F1E040C00F04BF0120FEF740FCB4
:1058200020462946BDE8F08110B50446032C00DB74
:1058300010BD04EB8400294901EB4000407A08B90F
:10584000012000E0002004EB8401244A02EB410126
:10585000487204EB8400114601EB4000007A0128F5
:105860000BD104EB840001EB4000407A08B9012021
:1058700000E000201A4908602CE004EB840017497E
:1058800001EB4000007A02280BD104EB840001EB0D
:105890004000407A08B9012000E00020114908606A
:1058A00018E004EB84000D4901EB4000007A032866
:1058B00010D104EB840001EB4000407A28B14FF492
:1058C00080710948FBF7E2FC04E04FF48071064860
:1058D000FBF7DAFCFFF76EFA00BFA9E780000020B3
:1058E0009481214294012342000C01400FB438B549
:1058F00005A800900F48009A0499FEF7AFFB00201E
:1059000000900C48FAF756FC85B200240DE000BF69
:1059100040210948FEF7AAFA0028F9D00548015DA0
:105920000548FEF770FB601C84B2AC42EFDB38BC6C
:105930005DF814FBF60200200048004000FF000064
:105940000000FF00FF000000FFFFFF0000FFFF005E
:10595000C4A20008000000000000000000000000D9
:10596000000000003F400000000000000000300088
:10597000400030004000000009000BC03D000BC09B
:105980003D00090018C024407FE022403180000023
:10599000180024C01B000D803240018003801C4091
:1059A00027401C80074000401000600000000000FD
:1059B000000000000000000000001F802040402088
:1059C0000000402020401F80000000000900060069
:1059D0001F80060009000000040004003F8004004E
:1059E0000400000000100060000000000000000043
:1059F0000400040004000400040000000000004053
:105A00000000000000000000002001C00600380077
:105A1000400000001F802040204020401F800000E8
:105A2000000010403FC000400000000018C02140AE
:105A30002240244018400000108020402440244090
:105A40001B80000002000D0011003FC0014000005B
:105A50003C80244024402440238000001F802440B8
:105A600024403440038000003000200027C038006C
:105A7000200000001B802440244024401B800000A4
:105A80001C0022C0224022401F80000000000000B5
:105A9000084000000000000000000000046000005A
:105AA00000000000000004000A00110020804040B7
:105AB0000900090009000900090000000000404039
:105AC000208011000A000400180020002340240058
:105AD000180000001F802040274029401F40000080
